{
  "_format": "hh-sol-artifact-1",
  "contractName": "Decentratwitter",
  "sourceName": "contracts/Decentratwitter.sol",
  "abi": [
    {
      "inputs": [],
      "stateMutability": "nonpayable",
      "type": "constructor"
    },
    {
      "anonymous": false,
      "inputs": [
        {
          "indexed": true,
          "internalType": "address",
          "name": "owner",
          "type": "address"
        },
        {
          "indexed": true,
          "internalType": "address",
          "name": "approved",
          "type": "address"
        },
        {
          "indexed": true,
          "internalType": "uint256",
          "name": "tokenId",
          "type": "uint256"
        }
      ],
      "name": "Approval",
      "type": "event"
    },
    {
      "anonymous": false,
      "inputs": [
        {
          "indexed": true,
          "internalType": "address",
          "name": "owner",
          "type": "address"
        },
        {
          "indexed": true,
          "internalType": "address",
          "name": "operator",
          "type": "address"
        },
        {
          "indexed": false,
          "internalType": "bool",
          "name": "approved",
          "type": "bool"
        }
      ],
      "name": "ApprovalForAll",
      "type": "event"
    },
    {
      "anonymous": false,
      "inputs": [
        {
          "indexed": false,
          "internalType": "uint256",
          "name": "id",
          "type": "uint256"
        },
        {
          "indexed": false,
          "internalType": "string",
          "name": "hash",
          "type": "string"
        },
        {
          "indexed": false,
          "internalType": "uint256",
          "name": "tipAmount",
          "type": "uint256"
        },
        {
          "indexed": false,
          "internalType": "address payable",
          "name": "author",
          "type": "address"
        }
      ],
      "name": "PostCreated",
      "type": "event"
    },
    {
      "anonymous": false,
      "inputs": [
        {
          "indexed": false,
          "internalType": "uint256",
          "name": "id",
          "type": "uint256"
        },
        {
          "indexed": false,
          "internalType": "string",
          "name": "hash",
          "type": "string"
        },
        {
          "indexed": false,
          "internalType": "uint256",
          "name": "tipAmount",
          "type": "uint256"
        },
        {
          "indexed": false,
          "internalType": "address payable",
          "name": "author",
          "type": "address"
        }
      ],
      "name": "PostTipped",
      "type": "event"
    },
    {
      "anonymous": false,
      "inputs": [
        {
          "indexed": true,
          "internalType": "address",
          "name": "from",
          "type": "address"
        },
        {
          "indexed": true,
          "internalType": "address",
          "name": "to",
          "type": "address"
        },
        {
          "indexed": true,
          "internalType": "uint256",
          "name": "tokenId",
          "type": "uint256"
        }
      ],
      "name": "Transfer",
      "type": "event"
    },
    {
      "inputs": [
        {
          "internalType": "address",
          "name": "to",
          "type": "address"
        },
        {
          "internalType": "uint256",
          "name": "tokenId",
          "type": "uint256"
        }
      ],
      "name": "approve",
      "outputs": [],
      "stateMutability": "nonpayable",
      "type": "function"
    },
    {
      "inputs": [
        {
          "internalType": "address",
          "name": "owner",
          "type": "address"
        }
      ],
      "name": "balanceOf",
      "outputs": [
        {
          "internalType": "uint256",
          "name": "",
          "type": "uint256"
        }
      ],
      "stateMutability": "view",
      "type": "function"
    },
    {
      "inputs": [],
      "name": "getAllPosts",
      "outputs": [
        {
          "components": [
            {
              "internalType": "uint256",
              "name": "id",
              "type": "uint256"
            },
            {
              "internalType": "string",
              "name": "hash",
              "type": "string"
            },
            {
              "internalType": "uint256",
              "name": "tipAmount",
              "type": "uint256"
            },
            {
              "internalType": "address payable",
              "name": "author",
              "type": "address"
            }
          ],
          "internalType": "struct Decentratwitter.Post[]",
          "name": "_posts",
          "type": "tuple[]"
        }
      ],
      "stateMutability": "view",
      "type": "function"
    },
    {
      "inputs": [
        {
          "internalType": "uint256",
          "name": "tokenId",
          "type": "uint256"
        }
      ],
      "name": "getApproved",
      "outputs": [
        {
          "internalType": "address",
          "name": "",
          "type": "address"
        }
      ],
      "stateMutability": "view",
      "type": "function"
    },
    {
      "inputs": [],
      "name": "getMyNfts",
      "outputs": [
        {
          "internalType": "uint256[]",
          "name": "_ids",
          "type": "uint256[]"
        }
      ],
      "stateMutability": "view",
      "type": "function"
    },
    {
      "inputs": [
        {
          "internalType": "address",
          "name": "owner",
          "type": "address"
        },
        {
          "internalType": "address",
          "name": "operator",
          "type": "address"
        }
      ],
      "name": "isApprovedForAll",
      "outputs": [
        {
          "internalType": "bool",
          "name": "",
          "type": "bool"
        }
      ],
      "stateMutability": "view",
      "type": "function"
    },
    {
      "inputs": [
        {
          "internalType": "string",
          "name": "_tokenURI",
          "type": "string"
        }
      ],
      "name": "mint",
      "outputs": [
        {
          "internalType": "uint256",
          "name": "",
          "type": "uint256"
        }
      ],
      "stateMutability": "nonpayable",
      "type": "function"
    },
    {
      "inputs": [],
      "name": "name",
      "outputs": [
        {
          "internalType": "string",
          "name": "",
          "type": "string"
        }
      ],
      "stateMutability": "view",
      "type": "function"
    },
    {
      "inputs": [
        {
          "internalType": "uint256",
          "name": "tokenId",
          "type": "uint256"
        }
      ],
      "name": "ownerOf",
      "outputs": [
        {
          "internalType": "address",
          "name": "",
          "type": "address"
        }
      ],
      "stateMutability": "view",
      "type": "function"
    },
    {
      "inputs": [],
      "name": "postCount",
      "outputs": [
        {
          "internalType": "uint256",
          "name": "",
          "type": "uint256"
        }
      ],
      "stateMutability": "view",
      "type": "function"
    },
    {
      "inputs": [
        {
          "internalType": "uint256",
          "name": "",
          "type": "uint256"
        }
      ],
      "name": "posts",
      "outputs": [
        {
          "internalType": "uint256",
          "name": "id",
          "type": "uint256"
        },
        {
          "internalType": "string",
          "name": "hash",
          "type": "string"
        },
        {
          "internalType": "uint256",
          "name": "tipAmount",
          "type": "uint256"
        },
        {
          "internalType": "address payable",
          "name": "author",
          "type": "address"
        }
      ],
      "stateMutability": "view",
      "type": "function"
    },
    {
      "inputs": [
        {
          "internalType": "address",
          "name": "",
          "type": "address"
        }
      ],
      "name": "profiles",
      "outputs": [
        {
          "internalType": "uint256",
          "name": "",
          "type": "uint256"
        }
      ],
      "stateMutability": "view",
      "type": "function"
    },
    {
      "inputs": [
        {
          "internalType": "address",
          "name": "from",
          "type": "address"
        },
        {
          "internalType": "address",
          "name": "to",
          "type": "address"
        },
        {
          "internalType": "uint256",
          "name": "tokenId",
          "type": "uint256"
        }
      ],
      "name": "safeTransferFrom",
      "outputs": [],
      "stateMutability": "nonpayable",
      "type": "function"
    },
    {
      "inputs": [
        {
          "internalType": "address",
          "name": "from",
          "type": "address"
        },
        {
          "internalType": "address",
          "name": "to",
          "type": "address"
        },
        {
          "internalType": "uint256",
          "name": "tokenId",
          "type": "uint256"
        },
        {
          "internalType": "bytes",
          "name": "_data",
          "type": "bytes"
        }
      ],
      "name": "safeTransferFrom",
      "outputs": [],
      "stateMutability": "nonpayable",
      "type": "function"
    },
    {
      "inputs": [
        {
          "internalType": "address",
          "name": "operator",
          "type": "address"
        },
        {
          "internalType": "bool",
          "name": "approved",
          "type": "bool"
        }
      ],
      "name": "setApprovalForAll",
      "outputs": [],
      "stateMutability": "nonpayable",
      "type": "function"
    },
    {
      "inputs": [
        {
          "internalType": "uint256",
          "name": "_id",
          "type": "uint256"
        }
      ],
      "name": "setProfile",
      "outputs": [],
      "stateMutability": "nonpayable",
      "type": "function"
    },
    {
      "inputs": [
        {
          "internalType": "bytes4",
          "name": "interfaceId",
          "type": "bytes4"
        }
      ],
      "name": "supportsInterface",
      "outputs": [
        {
          "internalType": "bool",
          "name": "",
          "type": "bool"
        }
      ],
      "stateMutability": "view",
      "type": "function"
    },
    {
      "inputs": [],
      "name": "symbol",
      "outputs": [
        {
          "internalType": "string",
          "name": "",
          "type": "string"
        }
      ],
      "stateMutability": "view",
      "type": "function"
    },
    {
      "inputs": [
        {
          "internalType": "uint256",
          "name": "_id",
          "type": "uint256"
        }
      ],
      "name": "tipPostOwner",
      "outputs": [],
      "stateMutability": "payable",
      "type": "function"
    },
    {
      "inputs": [],
      "name": "tokenCount",
      "outputs": [
        {
          "internalType": "uint256",
          "name": "",
          "type": "uint256"
        }
      ],
      "stateMutability": "view",
      "type": "function"
    },
    {
      "inputs": [
        {
          "internalType": "uint256",
          "name": "tokenId",
          "type": "uint256"
        }
      ],
      "name": "tokenURI",
      "outputs": [
        {
          "internalType": "string",
          "name": "",
          "type": "string"
        }
      ],
      "stateMutability": "view",
      "type": "function"
    },
    {
      "inputs": [
        {
          "internalType": "address",
          "name": "from",
          "type": "address"
        },
        {
          "internalType": "address",
          "name": "to",
          "type": "address"
        },
        {
          "internalType": "uint256",
          "name": "tokenId",
          "type": "uint256"
        }
      ],
      "name": "transferFrom",
      "outputs": [],
      "stateMutability": "nonpayable",
      "type": "function"
    },
    {
      "inputs": [
        {
          "internalType": "string",
          "name": "_postHash",
          "type": "string"
        }
      ],
      "name": "uploadPost",
      "outputs": [],
      "stateMutability": "nonpayable",
      "type": "function"
    }
  ],
  "bytecode": "0x60806040523480156200001157600080fd5b506040518060400160405280600f81526020017f446563656e7472617477697474657200000000000000000000000000000000008152506040518060400160405280600481526020017f4441505000000000000000000000000000000000000000000000000000000000815250816000908051906020019062000096929190620000b8565b508060019080519060200190620000af929190620000b8565b505050620001cd565b828054620000c69062000168565b90600052602060002090601f016020900481019282620000ea576000855562000136565b82601f106200010557805160ff191683800117855562000136565b8280016001018555821562000136579182015b828111156200013557825182559160200191906001019062000118565b5b50905062000145919062000149565b5090565b5b80821115620001645760008160009055506001016200014a565b5090565b600060028204905060018216806200018157607f821691505b602082108114156200019857620001976200019e565b5b50919050565b7f4e487b7100000000000000000000000000000000000000000000000000000000600052602260045260246000fd5b613f7a80620001dd6000396000f3fe6080604052600436106101405760003560e01c806370a08231116100b6578063bbe156271161006f578063bbe1562714610471578063bdd05adb146104ae578063c87b56dd146104d7578063d6313c0614610514578063d85d3d2714610530578063e985e9c51461056d57610140565b806370a082311461036357806385d3cb37146103a057806395d89b41146103c95780639f181b5e146103f4578063a22cb4651461041f578063b88d4fde1461044857610140565b80630b1e7f83116101085780630b1e7f831461023e57806317906c2e1461027e57806323b872dd146102a957806330561100146102d257806342842e0e146102fd5780636352211e1461032657610140565b806301ffc9a714610145578063047b07bf1461018257806306fdde03146101ad578063081812fc146101d8578063095ea7b314610215575b600080fd5b34801561015157600080fd5b5061016c60048036038101906101679190612a24565b6105aa565b6040516101799190613135565b60405180910390f35b34801561018e57600080fd5b5061019761068c565b6040516101a49190613113565b60405180910390f35b3480156101b957600080fd5b506101c26107dc565b6040516101cf9190613150565b60405180910390f35b3480156101e457600080fd5b506101ff60048036038101906101fa9190612ab7565b61086e565b60405161020c919061308a565b60405180910390f35b34801561022157600080fd5b5061023c600480360381019061023791906129e8565b6108f3565b005b34801561024a57600080fd5b5061026560048036038101906102609190612ab7565b610a0b565b6040516102759493929190613479565b60405180910390f35b34801561028a57600080fd5b50610293610ae3565b6040516102a09190613412565b60405180910390f35b3480156102b557600080fd5b506102d060048036038101906102cb91906128e2565b610ae9565b005b3480156102de57600080fd5b506102e7610b49565b6040516102f491906130f1565b60405180910390f35b34801561030957600080fd5b50610324600480360381019061031f91906128e2565b610d56565b005b34801561033257600080fd5b5061034d60048036038101906103489190612ab7565b610d76565b60405161035a919061308a565b60405180910390f35b34801561036f57600080fd5b5061038a6004803603810190610385919061287d565b610e28565b6040516103979190613412565b60405180910390f35b3480156103ac57600080fd5b506103c760048036038101906103c29190612ab7565b610ee0565b005b3480156103d557600080fd5b506103de610f9d565b6040516103eb9190613150565b60405180910390f35b34801561040057600080fd5b5061040961102f565b6040516104169190613412565b60405180910390f35b34801561042b57600080fd5b50610446600480360381019061044191906129ac565b611035565b005b34801561045457600080fd5b5061046f600480360381019061046a9190612931565b61104b565b005b34801561047d57600080fd5b506104986004803603810190610493919061287d565b6110ad565b6040516104a59190613412565b60405180910390f35b3480156104ba57600080fd5b506104d560048036038101906104d09190612a76565b6110c5565b005b3480156104e357600080fd5b506104fe60048036038101906104f99190612ab7565b611279565b60405161050b9190613150565b60405180910390f35b61052e60048036038101906105299190612ab7565b6113cb565b005b34801561053c57600080fd5b5061055760048036038101906105529190612a76565b6116ed565b6040516105649190613412565b60405180910390f35b34801561057957600080fd5b50610594600480360381019061058f91906128a6565b611772565b6040516105a19190613135565b60405180910390f35b60007f80ac58cd000000000000000000000000000000000000000000000000000000007bffffffffffffffffffffffffffffffffffffffffffffffffffffffff1916827bffffffffffffffffffffffffffffffffffffffffffffffffffffffff1916148061067557507f5b5e139f000000000000000000000000000000000000000000000000000000007bffffffffffffffffffffffffffffffffffffffffffffffffffffffff1916827bffffffffffffffffffffffffffffffffffffffffffffffffffffffff1916145b80610685575061068482611806565b5b9050919050565b606061069733610e28565b67ffffffffffffffff8111156106d6577f4e487b7100000000000000000000000000000000000000000000000000000000600052604160045260246000fd5b6040519080825280602002602001820160405280156107045781602001602082028036833780820191505090505b509050600080600754905060005b818110156107d6573373ffffffffffffffffffffffffffffffffffffffff166107466001836107419190613612565b610d76565b73ffffffffffffffffffffffffffffffffffffffff1614156107c35760018161076f9190613612565b8484815181106107a8577f4e487b7100000000000000000000000000000000000000000000000000000000600052603260045260246000fd5b60200260200101818152505082806107bf9061380a565b9350505b80806107ce9061380a565b915050610712565b50505090565b6060600080546107eb906137a7565b80601f0160208091040260200160405190810160405280929190818152602001828054610817906137a7565b80156108645780601f1061083957610100808354040283529160200191610864565b820191906000526020600020905b81548152906001019060200180831161084757829003601f168201915b5050505050905090565b600061087982611870565b6108b8576040517f08c379a00000000000000000000000000000000000000000000000000000000081526004016108af90613312565b60405180910390fd5b6004600083815260200190815260200160002060009054906101000a900473ffffffffffffffffffffffffffffffffffffffff169050919050565b60006108fe82610d76565b90508073ffffffffffffffffffffffffffffffffffffffff168373ffffffffffffffffffffffffffffffffffffffff16141561096f576040517f08c379a000000000000000000000000000000000000000000000000000000000815260040161096690613372565b60405180910390fd5b8073ffffffffffffffffffffffffffffffffffffffff1661098e6118dc565b73ffffffffffffffffffffffffffffffffffffffff1614806109bd57506109bc816109b76118dc565b611772565b5b6109fc576040517f08c379a00000000000000000000000000000000000000000000000000000000081526004016109f390613232565b60405180910390fd5b610a0683836118e4565b505050565b6009602052806000526040600020600091509050806000015490806001018054610a34906137a7565b80601f0160208091040260200160405190810160405280929190818152602001828054610a60906137a7565b8015610aad5780601f10610a8257610100808354040283529160200191610aad565b820191906000526020600020905b815481529060010190602001808311610a9057829003601f168201915b5050505050908060020154908060030160009054906101000a900473ffffffffffffffffffffffffffffffffffffffff16905084565b60085481565b610afa610af46118dc565b8261199d565b610b39576040517f08c379a0000000000000000000000000000000000000000000000000000000008152600401610b30906133f2565b60405180910390fd5b610b44838383611a7b565b505050565b606060085467ffffffffffffffff811115610b8d577f4e487b7100000000000000000000000000000000000000000000000000000000600052604160045260246000fd5b604051908082528060200260200182016040528015610bc657816020015b610bb3612663565b815260200190600190039081610bab5790505b50905060005b8151811015610d525760096000600183610be69190613612565b815260200190815260200160002060405180608001604052908160008201548152602001600182018054610c19906137a7565b80601f0160208091040260200160405190810160405280929190818152602001828054610c45906137a7565b8015610c925780601f10610c6757610100808354040283529160200191610c92565b820191906000526020600020905b815481529060010190602001808311610c7557829003601f168201915b50505050508152602001600282015481526020016003820160009054906101000a900473ffffffffffffffffffffffffffffffffffffffff1673ffffffffffffffffffffffffffffffffffffffff1673ffffffffffffffffffffffffffffffffffffffff1681525050828281518110610d34577f4e487b7100000000000000000000000000000000000000000000000000000000600052603260045260246000fd5b60200260200101819052508080610d4a9061380a565b915050610bcc565b5090565b610d718383836040518060200160405280600081525061104b565b505050565b6000806002600084815260200190815260200160002060009054906101000a900473ffffffffffffffffffffffffffffffffffffffff169050600073ffffffffffffffffffffffffffffffffffffffff168173ffffffffffffffffffffffffffffffffffffffff161415610e1f576040517f08c379a0000000000000000000000000000000000000000000000000000000008152600401610e1690613272565b60405180910390fd5b80915050919050565b60008073ffffffffffffffffffffffffffffffffffffffff168273ffffffffffffffffffffffffffffffffffffffff161415610e99576040517f08c379a0000000000000000000000000000000000000000000000000000000008152600401610e9090613252565b60405180910390fd5b600360008373ffffffffffffffffffffffffffffffffffffffff1673ffffffffffffffffffffffffffffffffffffffff168152602001908152602001600020549050919050565b3373ffffffffffffffffffffffffffffffffffffffff16610f0082610d76565b73ffffffffffffffffffffffffffffffffffffffff1614610f56576040517f08c379a0000000000000000000000000000000000000000000000000000000008152600401610f4d90613392565b60405180910390fd5b80600a60003373ffffffffffffffffffffffffffffffffffffffff1673ffffffffffffffffffffffffffffffffffffffff1681526020019081526020016000208190555050565b606060018054610fac906137a7565b80601f0160208091040260200160405190810160405280929190818152602001828054610fd8906137a7565b80156110255780601f10610ffa57610100808354040283529160200191611025565b820191906000526020600020905b81548152906001019060200180831161100857829003601f168201915b5050505050905090565b60075481565b6110476110406118dc565b8383611ce2565b5050565b61105c6110566118dc565b8361199d565b61109b576040517f08c379a0000000000000000000000000000000000000000000000000000000008152600401611092906133f2565b60405180910390fd5b6110a784848484611e4f565b50505050565b600a6020528060005260406000206000915090505481565b60006110d033610e28565b11611110576040517f08c379a0000000000000000000000000000000000000000000000000000000008152600401611107906133d2565b60405180910390fd5b6000815111611154576040517f08c379a000000000000000000000000000000000000000000000000000000000815260040161114b90613332565b60405180910390fd5b600860008154809291906111679061380a565b919050555060405180608001604052806008548152602001828152602001600081526020013373ffffffffffffffffffffffffffffffffffffffff168152506009600060085481526020019081526020016000206000820151816000015560208201518160010190805190602001906111e19291906126a1565b506040820151816002015560608201518160030160006101000a81548173ffffffffffffffffffffffffffffffffffffffff021916908373ffffffffffffffffffffffffffffffffffffffff1602179055509050507fc66336337a24e513f909b3b25119854dba8385d51307dbc7d31d1b2805e19c7e6008548260003360405161126e949392919061342d565b60405180910390a150565b606061128482611870565b6112c3576040517f08c379a00000000000000000000000000000000000000000000000000000000081526004016112ba906132f2565b60405180910390fd5b60006006600084815260200190815260200160002080546112e3906137a7565b80601f016020809104026020016040519081016040528092919081815260200182805461130f906137a7565b801561135c5780601f106113315761010080835404028352916020019161135c565b820191906000526020600020905b81548152906001019060200180831161133f57829003601f168201915b50505050509050600061136d611eab565b90506000815114156113835781925050506113c6565b6000825111156113b85780826040516020016113a0929190613066565b604051602081830303815290604052925050506113c6565b6113c184611ec2565b925050505b919050565b6000811180156113dd57506008548111155b61141c576040517f08c379a0000000000000000000000000000000000000000000000000000000008152600401611413906132b2565b60405180910390fd5b60006009600083815260200190815260200160002060405180608001604052908160008201548152602001600182018054611456906137a7565b80601f0160208091040260200160405190810160405280929190818152602001828054611482906137a7565b80156114cf5780601f106114a4576101008083540402835291602001916114cf565b820191906000526020600020905b8154815290600101906020018083116114b257829003601f168201915b50505050508152602001600282015481526020016003820160009054906101000a900473ffffffffffffffffffffffffffffffffffffffff1673ffffffffffffffffffffffffffffffffffffffff1673ffffffffffffffffffffffffffffffffffffffff168152505090503373ffffffffffffffffffffffffffffffffffffffff16816060015173ffffffffffffffffffffffffffffffffffffffff1614156115ad576040517f08c379a00000000000000000000000000000000000000000000000000000000081526004016115a4906133b2565b60405180910390fd5b806060015173ffffffffffffffffffffffffffffffffffffffff166108fc349081150290604051600060405180830381858888f193505050501580156115f7573d6000803e3d6000fd5b50348160400181815161160a9190613612565b91508181525050806009600084815260200190815260200160002060008201518160000155602082015181600101908051906020019061164b9291906126a1565b506040820151816002015560608201518160030160006101000a81548173ffffffffffffffffffffffffffffffffffffffff021916908373ffffffffffffffffffffffffffffffffffffffff1602179055509050507f20988fe475351e75813672abada1dddb7ac67cbbeb81e61e1160b8329d8cdf1c828260200151836040015184606001516040516116e19493929190613479565b60405180910390a15050565b6000600760008154809291906117029061380a565b919050555061171333600754611f69565b6117516040518060400160405280600b81526020017f696e20736f6c6964697479000000000000000000000000000000000000000000815250611f87565b61175d60075483612020565b611768600754610ee0565b6007549050919050565b6000600560008473ffffffffffffffffffffffffffffffffffffffff1673ffffffffffffffffffffffffffffffffffffffff16815260200190815260200160002060008373ffffffffffffffffffffffffffffffffffffffff1673ffffffffffffffffffffffffffffffffffffffff16815260200190815260200160002060009054906101000a900460ff16905092915050565b60007f01ffc9a7000000000000000000000000000000000000000000000000000000007bffffffffffffffffffffffffffffffffffffffffffffffffffffffff1916827bffffffffffffffffffffffffffffffffffffffffffffffffffffffff1916149050919050565b60008073ffffffffffffffffffffffffffffffffffffffff166002600084815260200190815260200160002060009054906101000a900473ffffffffffffffffffffffffffffffffffffffff1673ffffffffffffffffffffffffffffffffffffffff1614159050919050565b600033905090565b816004600083815260200190815260200160002060006101000a81548173ffffffffffffffffffffffffffffffffffffffff021916908373ffffffffffffffffffffffffffffffffffffffff160217905550808273ffffffffffffffffffffffffffffffffffffffff1661195783610d76565b73ffffffffffffffffffffffffffffffffffffffff167f8c5be1e5ebec7d5bd14f71427d1e84f3dd0314c0f7b2291e5b200ac8c7c3b92560405160405180910390a45050565b60006119a882611870565b6119e7576040517f08c379a00000000000000000000000000000000000000000000000000000000081526004016119de90613212565b60405180910390fd5b60006119f283610d76565b90508073ffffffffffffffffffffffffffffffffffffffff168473ffffffffffffffffffffffffffffffffffffffff161480611a6157508373ffffffffffffffffffffffffffffffffffffffff16611a498461086e565b73ffffffffffffffffffffffffffffffffffffffff16145b80611a725750611a718185611772565b5b91505092915050565b8273ffffffffffffffffffffffffffffffffffffffff16611a9b82610d76565b73ffffffffffffffffffffffffffffffffffffffff1614611af1576040517f08c379a0000000000000000000000000000000000000000000000000000000008152600401611ae890613192565b60405180910390fd5b600073ffffffffffffffffffffffffffffffffffffffff168273ffffffffffffffffffffffffffffffffffffffff161415611b61576040517f08c379a0000000000000000000000000000000000000000000000000000000008152600401611b58906131d2565b60405180910390fd5b611b6c838383612094565b611b776000826118e4565b6001600360008573ffffffffffffffffffffffffffffffffffffffff1673ffffffffffffffffffffffffffffffffffffffff1681526020019081526020016000206000828254611bc79190613699565b925050819055506001600360008473ffffffffffffffffffffffffffffffffffffffff1673ffffffffffffffffffffffffffffffffffffffff1681526020019081526020016000206000828254611c1e9190613612565b92505081905550816002600083815260200190815260200160002060006101000a81548173ffffffffffffffffffffffffffffffffffffffff021916908373ffffffffffffffffffffffffffffffffffffffff160217905550808273ffffffffffffffffffffffffffffffffffffffff168473ffffffffffffffffffffffffffffffffffffffff167fddf252ad1be2c89b69c2b068fc378daa952ba7f163c4a11628f55a4df523b3ef60405160405180910390a4611cdd838383612099565b505050565b8173ffffffffffffffffffffffffffffffffffffffff168373ffffffffffffffffffffffffffffffffffffffff161415611d51576040517f08c379a0000000000000000000000000000000000000000000000000000000008152600401611d48906131f2565b60405180910390fd5b80600560008573ffffffffffffffffffffffffffffffffffffffff1673ffffffffffffffffffffffffffffffffffffffff16815260200190815260200160002060008473ffffffffffffffffffffffffffffffffffffffff1673ffffffffffffffffffffffffffffffffffffffff16815260200190815260200160002060006101000a81548160ff0219169083151502179055508173ffffffffffffffffffffffffffffffffffffffff168373ffffffffffffffffffffffffffffffffffffffff167f17307eab39ab6107e8899845ad3d59bd9653f200f220920489ca2b5937696c3183604051611e429190613135565b60405180910390a3505050565b611e5a848484611a7b565b611e668484848461209e565b611ea5576040517f08c379a0000000000000000000000000000000000000000000000000000000008152600401611e9c90613172565b60405180910390fd5b50505050565b606060405180602001604052806000815250905090565b6060611ecd82611870565b611f0c576040517f08c379a0000000000000000000000000000000000000000000000000000000008152600401611f0390613352565b60405180910390fd5b6000611f16611eab565b90506000815111611f365760405180602001604052806000815250611f61565b80611f4084612235565b604051602001611f51929190613066565b6040516020818303038152906040525b915050919050565b611f838282604051806020016040528060008152506123e2565b5050565b61201d81604051602401611f9b9190613150565b6040516020818303038152906040527f41304fac000000000000000000000000000000000000000000000000000000007bffffffffffffffffffffffffffffffffffffffffffffffffffffffff19166020820180517bffffffffffffffffffffffffffffffffffffffffffffffffffffffff838183161783525050505061243d565b50565b61202982611870565b612068576040517f08c379a000000000000000000000000000000000000000000000000000000000815260040161205f90613292565b60405180910390fd5b8060066000848152602001908152602001600020908051906020019061208f9291906126a1565b505050565b505050565b505050565b60006120bf8473ffffffffffffffffffffffffffffffffffffffff16612466565b15612228578373ffffffffffffffffffffffffffffffffffffffff1663150b7a026120e86118dc565b8786866040518563ffffffff1660e01b815260040161210a94939291906130a5565b602060405180830381600087803b15801561212457600080fd5b505af192505050801561215557506040513d601f19601f820116820180604052508101906121529190612a4d565b60015b6121d8573d8060008114612185576040519150601f19603f3d011682016040523d82523d6000602084013e61218a565b606091505b506000815114156121d0576040517f08c379a00000000000000000000000000000000000000000000000000000000081526004016121c790613172565b60405180910390fd5b805181602001fd5b63150b7a0260e01b7bffffffffffffffffffffffffffffffffffffffffffffffffffffffff1916817bffffffffffffffffffffffffffffffffffffffffffffffffffffffff19161491505061222d565b600190505b949350505050565b6060600082141561227d576040518060400160405280600181526020017f300000000000000000000000000000000000000000000000000000000000000081525090506123dd565b600082905060005b600082146122af5780806122989061380a565b915050600a826122a89190613668565b9150612285565b60008167ffffffffffffffff8111156122f1577f4e487b7100000000000000000000000000000000000000000000000000000000600052604160045260246000fd5b6040519080825280601f01601f1916602001820160405280156123235781602001600182028036833780820191505090505b5090505b600085146123d65760018261233c9190613699565b9150600a8561234b9190613853565b60306123579190613612565b60f81b818381518110612393577f4e487b7100000000000000000000000000000000000000000000000000000000600052603260045260246000fd5b60200101907effffffffffffffffffffffffffffffffffffffffffffffffffffffffffffff1916908160001a905350600a856123cf9190613668565b9450612327565b8093505050505b919050565b6123ec8383612489565b6123f9600084848461209e565b612438576040517f08c379a000000000000000000000000000000000000000000000000000000000815260040161242f90613172565b60405180910390fd5b505050565b60008151905060006a636f6e736f6c652e6c6f679050602083016000808483855afa5050505050565b6000808273ffffffffffffffffffffffffffffffffffffffff163b119050919050565b600073ffffffffffffffffffffffffffffffffffffffff168273ffffffffffffffffffffffffffffffffffffffff1614156124f9576040517f08c379a00000000000000000000000000000000000000000000000000000000081526004016124f0906132d2565b60405180910390fd5b61250281611870565b15612542576040517f08c379a0000000000000000000000000000000000000000000000000000000008152600401612539906131b2565b60405180910390fd5b61254e60008383612094565b6001600360008473ffffffffffffffffffffffffffffffffffffffff1673ffffffffffffffffffffffffffffffffffffffff168152602001908152602001600020600082825461259e9190613612565b92505081905550816002600083815260200190815260200160002060006101000a81548173ffffffffffffffffffffffffffffffffffffffff021916908373ffffffffffffffffffffffffffffffffffffffff160217905550808273ffffffffffffffffffffffffffffffffffffffff16600073ffffffffffffffffffffffffffffffffffffffff167fddf252ad1be2c89b69c2b068fc378daa952ba7f163c4a11628f55a4df523b3ef60405160405180910390a461265f60008383612099565b5050565b6040518060800160405280600081526020016060815260200160008152602001600073ffffffffffffffffffffffffffffffffffffffff1681525090565b8280546126ad906137a7565b90600052602060002090601f0160209004810192826126cf5760008555612716565b82601f106126e857805160ff1916838001178555612716565b82800160010185558215612716579182015b828111156127155782518255916020019190600101906126fa565b5b5090506127239190612727565b5090565b5b80821115612740576000816000905550600101612728565b5090565b6000612757612752846134ea565b6134c5565b90508281526020810184848401111561276f57600080fd5b61277a848285613765565b509392505050565b60006127956127908461351b565b6134c5565b9050828152602081018484840111156127ad57600080fd5b6127b8848285613765565b509392505050565b6000813590506127cf81613ee8565b92915050565b6000813590506127e481613eff565b92915050565b6000813590506127f981613f16565b92915050565b60008151905061280e81613f16565b92915050565b600082601f83011261282557600080fd5b8135612835848260208601612744565b91505092915050565b600082601f83011261284f57600080fd5b813561285f848260208601612782565b91505092915050565b60008135905061287781613f2d565b92915050565b60006020828403121561288f57600080fd5b600061289d848285016127c0565b91505092915050565b600080604083850312156128b957600080fd5b60006128c7858286016127c0565b92505060206128d8858286016127c0565b9150509250929050565b6000806000606084860312156128f757600080fd5b6000612905868287016127c0565b9350506020612916868287016127c0565b925050604061292786828701612868565b9150509250925092565b6000806000806080858703121561294757600080fd5b6000612955878288016127c0565b9450506020612966878288016127c0565b935050604061297787828801612868565b925050606085013567ffffffffffffffff81111561299457600080fd5b6129a087828801612814565b91505092959194509250565b600080604083850312156129bf57600080fd5b60006129cd858286016127c0565b92505060206129de858286016127d5565b9150509250929050565b600080604083850312156129fb57600080fd5b6000612a09858286016127c0565b9250506020612a1a85828601612868565b9150509250929050565b600060208284031215612a3657600080fd5b6000612a44848285016127ea565b91505092915050565b600060208284031215612a5f57600080fd5b6000612a6d848285016127ff565b91505092915050565b600060208284031215612a8857600080fd5b600082013567ffffffffffffffff811115612aa257600080fd5b612aae8482850161283e565b91505092915050565b600060208284031215612ac957600080fd5b6000612ad784828501612868565b91505092915050565b6000612aec8383612fe5565b905092915050565b6000612b008383613048565b60208301905092915050565b612b15816136df565b82525050565b612b24816136df565b82525050565b612b33816136cd565b82525050565b6000612b448261356c565b612b4e81856135b2565b935083602082028501612b608561354c565b8060005b85811015612b9c5784840389528151612b7d8582612ae0565b9450612b8883613598565b925060208a01995050600181019050612b64565b50829750879550505050505092915050565b6000612bb982613577565b612bc381856135c3565b9350612bce8361355c565b8060005b83811015612bff578151612be68882612af4565b9750612bf1836135a5565b925050600181019050612bd2565b5085935050505092915050565b612c15816136f1565b82525050565b6000612c2682613582565b612c3081856135d4565b9350612c40818560208601613774565b612c4981613940565b840191505092915050565b612c5d81613753565b82525050565b6000612c6e8261358d565b612c7881856135e5565b9350612c88818560208601613774565b612c9181613940565b840191505092915050565b6000612ca78261358d565b612cb181856135f6565b9350612cc1818560208601613774565b612cca81613940565b840191505092915050565b6000612ce08261358d565b612cea8185613607565b9350612cfa818560208601613774565b80840191505092915050565b6000612d136032836135f6565b9150612d1e82613951565b604082019050919050565b6000612d366025836135f6565b9150612d41826139a0565b604082019050919050565b6000612d59601c836135f6565b9150612d64826139ef565b602082019050919050565b6000612d7c6024836135f6565b9150612d8782613a18565b604082019050919050565b6000612d9f6019836135f6565b9150612daa82613a67565b602082019050919050565b6000612dc2602c836135f6565b9150612dcd82613a90565b604082019050919050565b6000612de56038836135f6565b9150612df082613adf565b604082019050919050565b6000612e08602a836135f6565b9150612e1382613b2e565b604082019050919050565b6000612e2b6029836135f6565b9150612e3682613b7d565b604082019050919050565b6000612e4e602e836135f6565b9150612e5982613bcc565b604082019050919050565b6000612e71600f836135f6565b9150612e7c82613c1b565b602082019050919050565b6000612e946020836135f6565b9150612e9f82613c44565b602082019050919050565b6000612eb76031836135f6565b9150612ec282613c6d565b604082019050919050565b6000612eda602c836135f6565b9150612ee582613cbc565b604082019050919050565b6000612efd6019836135f6565b9150612f0882613d0b565b602082019050919050565b6000612f20602f836135f6565b9150612f2b82613d34565b604082019050919050565b6000612f436021836135f6565b9150612f4e82613d83565b604082019050919050565b6000612f666033836135f6565b9150612f7182613dd2565b604082019050919050565b6000612f896018836135f6565b9150612f9482613e21565b602082019050919050565b6000612fac6026836135f6565b9150612fb782613e4a565b604082019050919050565b6000612fcf6031836135f6565b9150612fda82613e99565b604082019050919050565b6000608083016000830151612ffd6000860182613048565b50602083015184820360208601526130158282612c63565b915050604083015161302a6040860182613048565b50606083015161303d6060860182612b0c565b508091505092915050565b61305181613749565b82525050565b61306081613749565b82525050565b60006130728285612cd5565b915061307e8284612cd5565b91508190509392505050565b600060208201905061309f6000830184612b2a565b92915050565b60006080820190506130ba6000830187612b2a565b6130c76020830186612b2a565b6130d46040830185613057565b81810360608301526130e68184612c1b565b905095945050505050565b6000602082019050818103600083015261310b8184612b39565b905092915050565b6000602082019050818103600083015261312d8184612bae565b905092915050565b600060208201905061314a6000830184612c0c565b92915050565b6000602082019050818103600083015261316a8184612c9c565b905092915050565b6000602082019050818103600083015261318b81612d06565b9050919050565b600060208201905081810360008301526131ab81612d29565b9050919050565b600060208201905081810360008301526131cb81612d4c565b9050919050565b600060208201905081810360008301526131eb81612d6f565b9050919050565b6000602082019050818103600083015261320b81612d92565b9050919050565b6000602082019050818103600083015261322b81612db5565b9050919050565b6000602082019050818103600083015261324b81612dd8565b9050919050565b6000602082019050818103600083015261326b81612dfb565b9050919050565b6000602082019050818103600083015261328b81612e1e565b9050919050565b600060208201905081810360008301526132ab81612e41565b9050919050565b600060208201905081810360008301526132cb81612e64565b9050919050565b600060208201905081810360008301526132eb81612e87565b9050919050565b6000602082019050818103600083015261330b81612eaa565b9050919050565b6000602082019050818103600083015261332b81612ecd565b9050919050565b6000602082019050818103600083015261334b81612ef0565b9050919050565b6000602082019050818103600083015261336b81612f13565b9050919050565b6000602082019050818103600083015261338b81612f36565b9050919050565b600060208201905081810360008301526133ab81612f59565b9050919050565b600060208201905081810360008301526133cb81612f7c565b9050919050565b600060208201905081810360008301526133eb81612f9f565b9050919050565b6000602082019050818103600083015261340b81612fc2565b9050919050565b60006020820190506134276000830184613057565b92915050565b60006080820190506134426000830187613057565b81810360208301526134548186612c9c565b90506134636040830185612c54565b6134706060830184612b1b565b95945050505050565b600060808201905061348e6000830187613057565b81810360208301526134a08186612c9c565b90506134af6040830185613057565b6134bc6060830184612b1b565b95945050505050565b60006134cf6134e0565b90506134db82826137d9565b919050565b6000604051905090565b600067ffffffffffffffff82111561350557613504613911565b5b61350e82613940565b9050602081019050919050565b600067ffffffffffffffff82111561353657613535613911565b5b61353f82613940565b9050602081019050919050565b6000819050602082019050919050565b6000819050602082019050919050565b600081519050919050565b600081519050919050565b600081519050919050565b600081519050919050565b6000602082019050919050565b6000602082019050919050565b600082825260208201905092915050565b600082825260208201905092915050565b600082825260208201905092915050565b600082825260208201905092915050565b600082825260208201905092915050565b600081905092915050565b600061361d82613749565b915061362883613749565b9250827fffffffffffffffffffffffffffffffffffffffffffffffffffffffffffffffff0382111561365d5761365c613884565b5b828201905092915050565b600061367382613749565b915061367e83613749565b92508261368e5761368d6138b3565b5b828204905092915050565b60006136a482613749565b91506136af83613749565b9250828210156136c2576136c1613884565b5b828203905092915050565b60006136d882613729565b9050919050565b60006136ea82613729565b9050919050565b60008115159050919050565b60007fffffffff0000000000000000000000000000000000000000000000000000000082169050919050565b600073ffffffffffffffffffffffffffffffffffffffff82169050919050565b6000819050919050565b600061375e82613749565b9050919050565b82818337600083830152505050565b60005b83811015613792578082015181840152602081019050613777565b838111156137a1576000848401525b50505050565b600060028204905060018216806137bf57607f821691505b602082108114156137d3576137d26138e2565b5b50919050565b6137e282613940565b810181811067ffffffffffffffff8211171561380157613800613911565b5b80604052505050565b600061381582613749565b91507fffffffffffffffffffffffffffffffffffffffffffffffffffffffffffffffff82141561384857613847613884565b5b600182019050919050565b600061385e82613749565b915061386983613749565b925082613879576138786138b3565b5b828206905092915050565b7f4e487b7100000000000000000000000000000000000000000000000000000000600052601160045260246000fd5b7f4e487b7100000000000000000000000000000000000000000000000000000000600052601260045260246000fd5b7f4e487b7100000000000000000000000000000000000000000000000000000000600052602260045260246000fd5b7f4e487b7100000000000000000000000000000000000000000000000000000000600052604160045260246000fd5b6000601f19601f8301169050919050565b7f4552433732313a207472616e7366657220746f206e6f6e20455243373231526560008201527f63656976657220696d706c656d656e7465720000000000000000000000000000602082015250565b7f4552433732313a207472616e736665722066726f6d20696e636f72726563742060008201527f6f776e6572000000000000000000000000000000000000000000000000000000602082015250565b7f4552433732313a20746f6b656e20616c7265616479206d696e74656400000000600082015250565b7f4552433732313a207472616e7366657220746f20746865207a65726f2061646460008201527f7265737300000000000000000000000000000000000000000000000000000000602082015250565b7f4552433732313a20617070726f766520746f2063616c6c657200000000000000600082015250565b7f4552433732313a206f70657261746f7220717565727920666f72206e6f6e657860008201527f697374656e7420746f6b656e0000000000000000000000000000000000000000602082015250565b7f4552433732313a20617070726f76652063616c6c6572206973206e6f74206f7760008201527f6e6572206e6f7220617070726f76656420666f7220616c6c0000000000000000602082015250565b7f4552433732313a2062616c616e636520717565727920666f7220746865207a6560008201527f726f206164647265737300000000000000000000000000000000000000000000602082015250565b7f4552433732313a206f776e657220717565727920666f72206e6f6e657869737460008201527f656e7420746f6b656e0000000000000000000000000000000000000000000000602082015250565b7f45524337323155524953746f726167653a2055524920736574206f66206e6f6e60008201527f6578697374656e7420746f6b656e000000000000000000000000000000000000602082015250565b7f496e76616c696420706f73742069640000000000000000000000000000000000600082015250565b7f4552433732313a206d696e7420746f20746865207a65726f2061646472657373600082015250565b7f45524337323155524953746f726167653a2055524920717565727920666f722060008201527f6e6f6e6578697374656e7420746f6b656e000000000000000000000000000000602082015250565b7f4552433732313a20617070726f76656420717565727920666f72206e6f6e657860008201527f697374656e7420746f6b656e0000000000000000000000000000000000000000602082015250565b7f43616e6e6f74207061737320616e20656d707479206861736800000000000000600082015250565b7f4552433732314d657461646174613a2055524920717565727920666f72206e6f60008201527f6e6578697374656e7420746f6b656e0000000000000000000000000000000000602082015250565b7f4552433732313a20617070726f76616c20746f2063757272656e74206f776e6560008201527f7200000000000000000000000000000000000000000000000000000000000000602082015250565b7f4d757374206f776e20746865206e667420796f752077616e7420746f2073656c60008201527f65637420617320796f75722070726f66696c6500000000000000000000000000602082015250565b7f43616e6e6f742074697020796f7572206f776e20706f73740000000000000000600082015250565b7f4d757374206f776e206120646563656e74726174776974746572206e6674207460008201527f6f20706f73740000000000000000000000000000000000000000000000000000602082015250565b7f4552433732313a207472616e736665722063616c6c6572206973206e6f74206f60008201527f776e6572206e6f7220617070726f766564000000000000000000000000000000602082015250565b613ef1816136cd565b8114613efc57600080fd5b50565b613f08816136f1565b8114613f1357600080fd5b50565b613f1f816136fd565b8114613f2a57600080fd5b50565b613f3681613749565b8114613f4157600080fd5b5056fea2646970667358221220dcb398b99f9320100c7a1049505bcc1ae332c14018741f353af6504a9c0581dc64736f6c63430008040033",
  "linkReferences": {},
  "deployedLinkReferences": {}
}